{
  "contractName": "Lottery",
  "abi": [
    {
      "inputs": [],
      "stateMutability": "nonpayable",
      "type": "constructor"
    },
    {
      "anonymous": false,
      "inputs": [
        {
          "indexed": false,
          "internalType": "uint256",
          "name": "idx",
          "type": "uint256"
        },
        {
          "indexed": true,
          "internalType": "address",
          "name": "bettor",
          "type": "address"
        },
        {
          "indexed": true,
          "internalType": "uint256",
          "name": "anwserBlockNum",
          "type": "uint256"
        },
        {
          "indexed": false,
          "internalType": "bytes1",
          "name": "challenges",
          "type": "bytes1"
        }
      ],
      "name": "BET",
      "type": "event"
    },
    {
      "anonymous": false,
      "inputs": [
        {
          "indexed": false,
          "internalType": "uint256",
          "name": "idx",
          "type": "uint256"
        },
        {
          "indexed": true,
          "internalType": "address",
          "name": "bettor",
          "type": "address"
        },
        {
          "indexed": true,
          "internalType": "uint256",
          "name": "anwserBlockNum",
          "type": "uint256"
        },
        {
          "indexed": false,
          "internalType": "bytes1",
          "name": "challenges",
          "type": "bytes1"
        },
        {
          "indexed": false,
          "internalType": "bytes32",
          "name": "answer",
          "type": "bytes32"
        },
        {
          "indexed": false,
          "internalType": "uint256",
          "name": "amount",
          "type": "uint256"
        }
      ],
      "name": "DRAW",
      "type": "event"
    },
    {
      "anonymous": false,
      "inputs": [
        {
          "indexed": false,
          "internalType": "uint256",
          "name": "idx",
          "type": "uint256"
        },
        {
          "indexed": true,
          "internalType": "address",
          "name": "bettor",
          "type": "address"
        },
        {
          "indexed": true,
          "internalType": "uint256",
          "name": "anwserBlockNum",
          "type": "uint256"
        },
        {
          "indexed": false,
          "internalType": "bytes1",
          "name": "challenges",
          "type": "bytes1"
        },
        {
          "indexed": false,
          "internalType": "bytes32",
          "name": "answer",
          "type": "bytes32"
        },
        {
          "indexed": false,
          "internalType": "uint256",
          "name": "amount",
          "type": "uint256"
        }
      ],
      "name": "FAIL",
      "type": "event"
    },
    {
      "anonymous": false,
      "inputs": [
        {
          "indexed": false,
          "internalType": "uint256",
          "name": "idx",
          "type": "uint256"
        },
        {
          "indexed": true,
          "internalType": "address",
          "name": "bettor",
          "type": "address"
        },
        {
          "indexed": true,
          "internalType": "uint256",
          "name": "anwserBlockNum",
          "type": "uint256"
        },
        {
          "indexed": false,
          "internalType": "bytes1",
          "name": "challenges",
          "type": "bytes1"
        }
      ],
      "name": "REFUND",
      "type": "event"
    },
    {
      "anonymous": false,
      "inputs": [
        {
          "indexed": false,
          "internalType": "uint256",
          "name": "idx",
          "type": "uint256"
        },
        {
          "indexed": true,
          "internalType": "address",
          "name": "bettor",
          "type": "address"
        },
        {
          "indexed": true,
          "internalType": "uint256",
          "name": "anwserBlockNum",
          "type": "uint256"
        },
        {
          "indexed": false,
          "internalType": "bytes1",
          "name": "challenges",
          "type": "bytes1"
        },
        {
          "indexed": false,
          "internalType": "bytes32",
          "name": "answer",
          "type": "bytes32"
        },
        {
          "indexed": false,
          "internalType": "uint256",
          "name": "amount",
          "type": "uint256"
        }
      ],
      "name": "WIN",
      "type": "event"
    },
    {
      "inputs": [],
      "name": "owner",
      "outputs": [
        {
          "internalType": "address payable",
          "name": "",
          "type": "address"
        }
      ],
      "stateMutability": "view",
      "type": "function",
      "constant": true
    },
    {
      "inputs": [
        {
          "internalType": "bytes1",
          "name": "challenges",
          "type": "bytes1"
        }
      ],
      "name": "betAndDistribute",
      "outputs": [],
      "stateMutability": "payable",
      "type": "function",
      "payable": true
    },
    {
      "inputs": [
        {
          "internalType": "bytes1",
          "name": "challenges",
          "type": "bytes1"
        }
      ],
      "name": "bet",
      "outputs": [
        {
          "internalType": "bool",
          "name": "",
          "type": "bool"
        }
      ],
      "stateMutability": "payable",
      "type": "function",
      "payable": true
    },
    {
      "inputs": [],
      "name": "distribute",
      "outputs": [],
      "stateMutability": "nonpayable",
      "type": "function"
    },
    {
      "inputs": [
        {
          "internalType": "address payable",
          "name": "addr",
          "type": "address"
        },
        {
          "internalType": "uint256",
          "name": "amount",
          "type": "uint256"
        }
      ],
      "name": "transferAfterPayingFee",
      "outputs": [
        {
          "internalType": "uint256",
          "name": "",
          "type": "uint256"
        }
      ],
      "stateMutability": "nonpayable",
      "type": "function"
    },
    {
      "inputs": [
        {
          "internalType": "bytes1",
          "name": "challange",
          "type": "bytes1"
        },
        {
          "internalType": "bytes32",
          "name": "answer",
          "type": "bytes32"
        }
      ],
      "name": "isMatch",
      "outputs": [
        {
          "internalType": "enum Lottery.BettingResult",
          "name": "",
          "type": "uint8"
        },
        {
          "internalType": "bytes32",
          "name": "",
          "type": "bytes32"
        }
      ],
      "stateMutability": "pure",
      "type": "function",
      "constant": true
    },
    {
      "inputs": [
        {
          "internalType": "bytes32",
          "name": "blockHash",
          "type": "bytes32"
        }
      ],
      "name": "setBlockHashForTest",
      "outputs": [],
      "stateMutability": "nonpayable",
      "type": "function"
    },
    {
      "inputs": [],
      "name": "getPot",
      "outputs": [
        {
          "internalType": "uint256",
          "name": "",
          "type": "uint256"
        }
      ],
      "stateMutability": "view",
      "type": "function",
      "constant": true
    },
    {
      "inputs": [
        {
          "internalType": "uint256",
          "name": "idx",
          "type": "uint256"
        }
      ],
      "name": "getBetInfo",
      "outputs": [
        {
          "internalType": "uint256",
          "name": "answerBlockNum",
          "type": "uint256"
        },
        {
          "internalType": "address",
          "name": "bettor",
          "type": "address"
        },
        {
          "internalType": "bytes1",
          "name": "challanges",
          "type": "bytes1"
        }
      ],
      "stateMutability": "view",
      "type": "function",
      "constant": true
    }
  ],
  "bytecode": "0x60806040526000600460006101000a81548160ff02191690831515021790555034801561002b57600080fd5b5033600660006101000a81548173ffffffffffffffffffffffffffffffffffffffff021916908373ffffffffffffffffffffffffffffffffffffffff16021790555061129c8061007c6000396000f3fe6080604052600436106100865760003560e01c806399a167d71161005957806399a167d714610249578063b57b1614146102d9578063e16ea85714610314578063e4fc6b6d14610364578063f4b46f5b1461037b57610086565b8063403c9fa81461008b57806379141f80146100b65780638da5cb5b1461018357806395327d11146101da575b600080fd5b34801561009757600080fd5b506100a06103e3565b6040518082815260200191505060405180910390f35b3480156100c257600080fd5b506100ef600480360360208110156100d957600080fd5b81019080803590602001909291905050506103ec565b604051808481526020018373ffffffffffffffffffffffffffffffffffffffff1673ffffffffffffffffffffffffffffffffffffffff168152602001827effffffffffffffffffffffffffffffffffffffffffffffffffffffffffffff19167effffffffffffffffffffffffffffffffffffffffffffffffffffffffffffff19168152602001935050505060405180910390f35b34801561018f57600080fd5b506101986104f1565b604051808273ffffffffffffffffffffffffffffffffffffffff1673ffffffffffffffffffffffffffffffffffffffff16815260200191505060405180910390f35b3480156101e657600080fd5b50610233600480360360408110156101fd57600080fd5b81019080803573ffffffffffffffffffffffffffffffffffffffff16906020019092919080359060200190929190505050610517565b6040518082815260200191505060405180910390f35b34801561025557600080fd5b506102ae6004803603604081101561026c57600080fd5b8101908080357effffffffffffffffffffffffffffffffffffffffffffffffffffffffffffff19169060200190929190803590602001909291905050506105e0565b604051808360028111156102be57fe5b60ff1681526020018281526020019250505060405180910390f35b3480156102e557600080fd5b50610312600480360360208110156102fc57600080fd5b81019080803590602001909291905050506108ea565b005b6103626004803603602081101561032a57600080fd5b8101908080357effffffffffffffffffffffffffffffffffffffffffffffffffffffffffffff1916906020019092919050505061094e565b005b34801561037057600080fd5b50610379610963565b005b6103c96004803603602081101561039157600080fd5b8101908080357effffffffffffffffffffffffffffffffffffffffffffffffffffffffffffff19169060200190929190505050610eb0565b604051808215151515815260200191505060405180910390f35b60008054905090565b60008060006103f961120d565b60036000868152602001908152602001600020604051806060016040529081600082015481526020016001820160009054906101000a900473ffffffffffffffffffffffffffffffffffffffff1673ffffffffffffffffffffffffffffffffffffffff1673ffffffffffffffffffffffffffffffffffffffff1681526020016001820160149054906101000a900460f81b7effffffffffffffffffffffffffffffffffffffffffffffffffffffffffffff19167effffffffffffffffffffffffffffffffffffffffffffffffffffffffffffff1916815250509050806000015193508060200151925080604001519150509193909250565b600660009054906101000a900473ffffffffffffffffffffffffffffffffffffffff1681565b60008060009050600081840390508473ffffffffffffffffffffffffffffffffffffffff166108fc829081150290604051600060405180830381858888f1935050505015801561056b573d6000803e3d6000fd5b50600660009054906101000a900473ffffffffffffffffffffffffffffffffffffffff1673ffffffffffffffffffffffffffffffffffffffff166108fc839081150290604051600060405180830381858888f193505050501580156105d4573d6000803e3d6000fd5b50809250505092915050565b600080600084905060008590506000856000602081106105fc57fe5b1a60f81b905060008660006020811061061157fe5b1a60f81b90506004847effffffffffffffffffffffffffffffffffffffffffffffffffffffffffffff1916901c93506004847effffffffffffffffffffffffffffffffffffffffffffffffffffffffffffff1916901b93506004827effffffffffffffffffffffffffffffffffffffffffffffffffffffffffffff1916901c91506004827effffffffffffffffffffffffffffffffffffffffffffffffffffffffffffff1916901b91506004837effffffffffffffffffffffffffffffffffffffffffffffffffffffffffffff1916901b92506004837effffffffffffffffffffffffffffffffffffffffffffffffffffffffffffff1916901c92506004817effffffffffffffffffffffffffffffffffffffffffffffffffffffffffffff1916901b90506004817effffffffffffffffffffffffffffffffffffffffffffffffffffffffffffff1916901c90506000827effffffffffffffffffffffffffffffffffffffffffffffffffffffffffffff1916857effffffffffffffffffffffffffffffffffffffffffffffffffffffffffffff19161490506000827effffffffffffffffffffffffffffffffffffffffffffffffffffffffffffff1916857effffffffffffffffffffffffffffffffffffffffffffffffffffffffffffff19161490508180156107ff5750805b1561084b5760008960006020811061081357fe5b1a60f81b807effffffffffffffffffffffffffffffffffffffffffffffffffffffffffffff19169050975097505050505050506108e3565b81806108545750805b156108a05760018960006020811061086857fe5b1a60f81b807effffffffffffffffffffffffffffffffffffffffffffffffffffffffffffff19169050975097505050505050506108e3565b6002896000602081106108af57fe5b1a60f81b807effffffffffffffffffffffffffffffffffffffffffffffffffffffffffffff19169050975097505050505050505b9250929050565b600660009054906101000a900473ffffffffffffffffffffffffffffffffffffffff1673ffffffffffffffffffffffffffffffffffffffff163373ffffffffffffffffffffffffffffffffffffffff161461094457600080fd5b8060058190555050565b61095781610eb0565b50610960610963565b50565b600061096d61120d565b60008060008060025495505b600154861015610ea15760036000878152602001908152602001600020604051806060016040529081600082015481526020016001820160009054906101000a900473ffffffffffffffffffffffffffffffffffffffff1673ffffffffffffffffffffffffffffffffffffffff1673ffffffffffffffffffffffffffffffffffffffff1681526020016001820160149054906101000a900460f81b7effffffffffffffffffffffffffffffffffffffffffffffffffffffffffffff19167effffffffffffffffffffffffffffffffffffffffffffffffffffffffffffff1916815250509450610a6b8560000151611054565b935060006002811115610a7a57fe5b846002811115610a8657fe5b1415610d8857610aa68560400151610aa18760000151611084565b6105e0565b809350819450505060006002811115610abb57fe5b836002811115610ac757fe5b1415610ba257610add8560200151600054610517565b9050600080819055508460000151856020015173ffffffffffffffffffffffffffffffffffffffff167f49e11ebc60d9fc823bbe051618524f52ab69499742227b148f9f05b6f81a70f5888860400151868660405180858152602001847effffffffffffffffffffffffffffffffffffffffffffffffffffffffffffff19167effffffffffffffffffffffffffffffffffffffffffffffffffffffffffffff1916815260200183815260200182815260200194505050505060405180910390a3610d83565b600280811115610bae57fe5b836002811115610bba57fe5b1415610c93576611c37937e0800060008082825401925050819055508460000151856020015173ffffffffffffffffffffffffffffffffffffffff167fbd6da38a406f7b4bead722d88ea3380fd77a678afe56109221cea5aa3dac876c88886040015186600060405180858152602001847effffffffffffffffffffffffffffffffffffffffffffffffffffffffffffff19167effffffffffffffffffffffffffffffffffffffffffffffffffffffffffffff1916815260200183815260200182815260200194505050505060405180910390a3610d82565b60016002811115610ca057fe5b836002811115610cac57fe5b1415610d8157610cc785602001516611c37937e08000610517565b90508460000151856020015173ffffffffffffffffffffffffffffffffffffffff167f24c7ccff6d37d4e2dc338b88a6bb7378adb9974435bb07841cc8163319ac0525888860400151868660405180858152602001847effffffffffffffffffffffffffffffffffffffffffffffffffffffffffffff19167effffffffffffffffffffffffffffffffffffffffffffffffffffffffffffff1916815260200183815260200182815260200194505050505060405180910390a35b5b5b610e8a565b60016002811115610d9557fe5b846002811115610da157fe5b1415610dac57610ea1565b600280811115610db857fe5b846002811115610dc457fe5b1415610e8957610ddf85602001516611c37937e08000610517565b90508460000151856020015173ffffffffffffffffffffffffffffffffffffffff167fdb685769b4bfb566e50dd1d8609dd0d1366e4115dd8f365f8ce0ab16e27d647888886040015160405180838152602001827effffffffffffffffffffffffffffffffffffffffffffffffffffffffffffff19167effffffffffffffffffffffffffffffffffffffffffffffffffffffffffffff191681526020019250505060405180910390a35b5b610e93866110ac565b508580600101965050610979565b85600281905550505050505050565b60006611c37937e080003414610f2e576040517f08c379a00000000000000000000000000000000000000000000000000000000081526004018080602001828103825260168152602001807f5b4552524f525d204e6f7420656e6f756768204554480000000000000000000081525060200191505060405180910390fd5b610f3782611110565b610fa9576040517f08c379a000000000000000000000000000000000000000000000000000000000815260040180806020018281038252601b8152602001807f5b4552524f525d204661696c20746f2061646420426574496e666f000000000081525060200191505060405180910390fd5b600343013373ffffffffffffffffffffffffffffffffffffffff167fd7f317d2249e14e67c7019537382c0ad31807291193f197c332bc516e1532fc960018054038560405180838152602001827effffffffffffffffffffffffffffffffffffffffffffffffffffffffffffff19167effffffffffffffffffffffffffffffffffffffffffffffffffffffffffffff191681526020019250505060405180910390a360019050919050565b6000814311611066576001905061107f565b6101008201431061107a576002905061107f565b600090505b919050565b6000600460009054906101000a900460ff166110a2576005546110a5565b81405b9050919050565b6000600360008381526020019081526020016000206000808201600090556001820160006101000a81549073ffffffffffffffffffffffffffffffffffffffff02191690556001820160146101000a81549060ff0219169055505060019050919050565b600060405180606001604052806003430181526020013373ffffffffffffffffffffffffffffffffffffffff168152602001837effffffffffffffffffffffffffffffffffffffffffffffffffffffffffffff19168152506003600060015481526020019081526020016000206000820151816000015560208201518160010160006101000a81548173ffffffffffffffffffffffffffffffffffffffff021916908373ffffffffffffffffffffffffffffffffffffffff16021790555060408201518160010160146101000a81548160ff021916908360f81c021790555090505060016000815480929190600101919050555060019050919050565b604051806060016040528060008152602001600073ffffffffffffffffffffffffffffffffffffffff16815260200160007effffffffffffffffffffffffffffffffffffffffffffffffffffffffffffff19168152509056fea2646970667358221220d91432d07a7d99b59620d85b02e7798953d5267eec36df79a0526e72e0f2e8fa64736f6c63430006000033",
  "source": "pragma solidity >=0.4.22 <0.9.0;\n\ncontract Lottery {\n    struct BetInfo {\n        uint256 answerBlockNum; // 32 bytes\n        address payable bettor; // 20 bytes\n        bytes1 challanges; // 1 bytes\n    }\n    uint256 private _pot;\n    uint256 private _tail; // 32 bytes\n    uint256 private _head;\n    mapping (uint256 => BetInfo) private _bets; \n\n    uint256 internal constant BLOCK_LIMIT = 256;\n    uint256 internal constant BET_BLOCK_INTERVAL = 3;\n    uint256 internal constant BET_AMOUNT = 5 * 10 ** 15;\n\n    enum BlockStatus {Checkable, NotRevealed, BlockLimitPassed}\n    enum BettingResult {Win, Draw, Fail}\n\n    bool mode = false; // if false, for test. If not, for real block Hash\n    bytes32 blockHashForTest; \n\n    event BET(uint256 idx, address indexed bettor, uint256 indexed anwserBlockNum, bytes1 challenges);\n    event WIN(uint256 idx, address indexed bettor, uint256 indexed anwserBlockNum, bytes1 challenges, bytes32 answer, uint256 amount);\n    event FAIL(uint256 idx, address indexed bettor, uint256 indexed anwserBlockNum, bytes1 challenges, bytes32 answer, uint256 amount);\n    event DRAW(uint256 idx, address indexed bettor, uint256 indexed anwserBlockNum, bytes1 challenges, bytes32 answer, uint256 amount);\n    event REFUND(uint256 idx, address indexed bettor, uint256 indexed anwserBlockNum, bytes1 challenges);\n\n    address payable public owner;\n\n    constructor() public {\n        owner = payable(msg.sender);\n    }\n\n/**\n * @dev Bet and distribute. \n */\n    function betAndDistribute(bytes1 challenges) public payable {\n        bet(challenges);\n        distribute();\n    }\n\n/**\n * @dev Submit bet transaction. User must send 0.005 ETH and 1 byte string for betting.\n        Then, the BetInfo is pushed to the queue (_bet).\n        Distribute function process the BetInfo. \n */\n    function bet(bytes1 challenges) public payable returns (bool) {\n        require(msg.value == BET_AMOUNT, \"[ERROR] Not enough ETH\"); // msg.sender.balance >= BET_AMOUNT ?? \n        require(pushBet(challenges), \"[ERROR] Fail to add BetInfo\");\n        emit BET(_tail - 1, msg.sender,block.number + BET_BLOCK_INTERVAL, challenges);\n        return true;\n    }\n\n/**\n * @dev Check the betting result and distribute the pot money.\n        If both letters match, get the pot money (_pot).\n        If one letter match or chek is not possible, refund the betting money (BET_AMOUNT).\n        If both letters are not matched, accumulate the betting money into the pot money.\n */\n    function distribute() public {\n        uint256 cur;\n        BetInfo memory b;\n    \n        BlockStatus blockStatus;\n        BettingResult bResult;\n        \n        bytes32 answer;\n        uint256 amount;\n\n        for (cur = _head; cur < _tail; cur++) {\n            b = _bets[cur];\n            blockStatus = getBlockStatus(b.answerBlockNum);\n        \n            // Check the block of answerBlockNum is revealed\n            if (blockStatus == BlockStatus.Checkable) {\n                (bResult, answer) = isMatch(b.challanges, getBlockHash(b.answerBlockNum));\n\n                if (bResult == BettingResult.Win) {\n                    // Transfer pot and reset pot to 0\n                    amount = transferAfterPayingFee(b.bettor, _pot);\n                    _pot = 0;\n                    emit WIN(cur, b.bettor, b.answerBlockNum, b.challanges, answer, amount);\n\n                } else if (bResult == BettingResult.Fail) {\n                    // Update pot = pot + BET_AMOUNT\n                    _pot +=  BET_AMOUNT;\n                    emit FAIL(cur, b.bettor, b.answerBlockNum, b.challanges, answer, 0);\n\n                } else if (bResult == BettingResult.Draw) {\n                    // transfer only BET_AMOUNT\n                    amount = transferAfterPayingFee(b.bettor, BET_AMOUNT);\n                    emit DRAW(cur, b.bettor, b.answerBlockNum, b.challanges, answer, amount);\n                }\n                \n            } else if (blockStatus == BlockStatus.NotRevealed) {\n                break;\n\n            } else if (blockStatus == BlockStatus.BlockLimitPassed) {\n                // transfer only BET_AMOUNT\n                amount = transferAfterPayingFee(b.bettor, BET_AMOUNT);\n                emit REFUND(cur, b.bettor, b.answerBlockNum, b.challanges);\n            }\n            popBet(cur);\n        }\n        _head = cur;\n    }\n\n    function transferAfterPayingFee(address payable addr, uint256 amount) public returns (uint256) {\n        uint256 fee = 0; // it can be \"amount / 100\" when the fee is 10% of amount; \n        uint256 amountWithoutFee = amount - fee;\n        addr.transfer(amountWithoutFee);\n        owner.transfer(fee);\n        return amountWithoutFee;\n    }\n\n    function getBlockStatus(uint256 answerBlockNum) internal view returns (BlockStatus) {\n        if (block.number <= answerBlockNum) {\n            return BlockStatus.NotRevealed;\n        } \n        if (block.number >= answerBlockNum + BLOCK_LIMIT) {\n            return BlockStatus.BlockLimitPassed;\n        }\n        return BlockStatus.Checkable;\n    }\n\n    function isMatch(bytes1 challange, bytes32 answer) public pure returns (BettingResult, bytes32) {\n        bytes1 c1 = challange;\n        bytes1 c2 = challange;\n        bytes1 a1 = answer[0];\n        bytes1 a2 = answer[0];\n\n        // Get fisrt letter\n        c1 = c1 >> 4; // 0xab -> 0x0a\n        c1 = c1 << 4; // 0x0a -> 0xa0\n\n        a1 = a1 >> 4;\n        a1 = a1 << 4;\n\n        // Get second letter \n        c2 = c2 << 4;\n        c2 = c2 >> 4;\n\n        a2 = a2 << 4;\n        a2 = a2 >> 4;\n\n        bool fisrtResult = (c1 == a1);\n        bool secondResult = (c2 == a2);\n\n        if (fisrtResult && secondResult) {\n            return (BettingResult.Win, answer[0]);\n        } else if (fisrtResult || secondResult) {\n            return (BettingResult.Draw, answer[0]);\n        }\n        return (BettingResult.Fail, answer[0]);\n    }\n\n    function setBlockHashForTest(bytes32 blockHash) public {\n        require(msg.sender == owner);\n        blockHashForTest = blockHash;\n    }\n\n    function getBlockHash(uint256 blockNumber) internal view returns (bytes32) {\n        // During testing, blockhash() function can return random values. \n        // So when the mode is \"test\", it returns the blockHash value set for testing.\n        return mode ? blockhash(blockNumber) : blockHashForTest;\n    }\n\n    function getPot() public view returns (uint256) {\n        return _pot;\n    }\n\n    function getBetInfo(uint256 idx) public view returns (uint256 answerBlockNum, address bettor, bytes1 challanges) {\n        BetInfo memory b = _bets[idx];\n        answerBlockNum = b.answerBlockNum;\n        bettor = b.bettor;\n        challanges = b.challanges;\n    }\n\n    function pushBet(bytes1 challenges) internal returns (bool) {\n        _bets[_tail] = BetInfo(block.number + BET_BLOCK_INTERVAL, payable(msg.sender), challenges);\n        _tail++;\n        return true;\n    }\n\n    function popBet(uint256 idx) internal returns (bool) {\n        delete _bets[idx];\n        return true;\n    }\n}\n",
  "sourcePath": "/Users/ohaneul/Library/CloudStorage/OneDrive-postech.ac.kr/2023/Dapp Projects/lottery-dapp/lottery-smart-contract/contracts/Lottery.sol",
  "compiler": {
    "name": "solc",
    "version": "0.6.0+commit.26b70077.Emscripten.clang"
  },
  "schemaVersion": "3.4.13",
  "updatedAt": "2023-06-02T02:57:25.213Z",
  "networkType": "ethereum",
  "devdoc": {
    "methods": {
      "bet(bytes1)": {
        "details": "Submit bet transaction. User must send 0.005 ETH and 1 byte string for betting. Then, the BetInfo is pushed to the queue (_bet). Distribute function process the BetInfo. "
      },
      "betAndDistribute(bytes1)": {
        "details": "Bet and distribute. "
      },
      "distribute()": {
        "details": "Check the betting result and distribute the pot money. If both letters match, get the pot money (_pot). If one letter match or chek is not possible, refund the betting money (BET_AMOUNT). If both letters are not matched, accumulate the betting money into the pot money."
      }
    }
  },
  "userdoc": {
    "methods": {}
  }
}